:1000000045C0000060C000005EC000005CC0000091
:100010005AC0000058C0000056C0000054C0000084
:1000200052C0000050C000004EC000004CC0000094
:100030004AC0000064C1000046C0000044C0000087
:1000400042C0000040C000003EC000003CC00000B4
:100050003AC0000038C0000036C0000034C00000C4
:1000600032C0000030C000002EC000002CC00000D4
:100070002AC0000028C0000026C0000024C00000E4
:1000800022C0000020C000001EC0000011241FBEBE
:10009000CFEFD0E4DEBFCDBF11E0A0E0B1E0E2E4FD
:1000A000FAE000E00BBF02C007900D92A831B10743
:1000B000D9F721E0A8E1B1E001C01D92A432B20756
:1000C000E1F7F8D2BCC49CCF181619065CF008956D
:1000D000000021503109E1F74F5F5F4F841795070A
:1000E00019F4089540E050E027E033E0F1CF5E9846
:1000F00088B95F9A00005F9882E090E0E5CF0895AC
:1001000081E0F5CF0895813118F48158F0CF08953A
:100110008155EDCF089584E690E0D6DF88E3E7DFF0
:1001200086E0E5DF8FE0E3DF81E0E1DF8AE090E079
:10013000CBCF08955E9A88B95F9A00005F9881E0FE
:1001400090E0C2CF08950F931F93CF93DF93182FA2
:10015000EB01D6DF8881882351F001E0010F812F68
:10016000D2DF8991E7DF102F88818111F6CFDF91EF
:10017000CF911F910F910895CF92DF92EF92FF924E
:100180000F931F93CF93DF9300D000D01F92CDB772
:10019000DEB76C01DE01119695E0FD0111929A9592
:1001A000E9F7209A289AFFEF20E782E0F1502040FB
:1001B0008040E1F700C000002898AFE9BCE8119743
:1001C000F1F700C00000289A2098BAE6BA95F1F736
:1001D00000C0189959C0E5EDEA95F1F70000189BA9
:1001E00055C0F5EDFA95F1F700008E010F5F1F4F36
:1001F0007E0126E0E20EF11CE1E0F0E026C0215095
:10020000310919F445C029EC30E0189BF8CF80E59E
:100210008A95F1F7189B08C09F01042E02C0220F97
:10022000331F0A94E2F7922B29EC30E003C02150EF
:10023000310981F11899FBCF4150510920F7D801BC
:100240009D938D01EA16FB0621F047E050E090E017
:10025000DACF209A289ABFEFE0E7F2E0B150E04011
:10026000F040E1F700C0000029813B818A81820FC4
:10027000830F9C81890F9D8189130EC0D6013C9309
:10028000FB01208380E009C08FEF07C08FEF05C01E
:100290008FEF03C08FEF01C08FEF0F900F900F9083
:1002A0000F900F90DF91CF911F910F91FF90EF90E2
:1002B000DF90CF9008958BE0809381008DE790E0F0
:1002C000909389008093880082E080936F00109261
:1002D0008500109284008091000190910101A0910D
:1002E0000201B091030180931A0190931B01A09326
:1002F0001C01B0931D018FB780688FBF08951F92B6
:100300000F920FB60F9211248F939F93AF93BF93C9
:1003100080911A0190911B01A0911C01B0911D01C7
:100320000197A109B10980931A0190931B01A09331
:100330001C01B0931D01892B8A2B8B2B99F481E032
:1003400080931E018091000190910101A091020112
:10035000B091030180931A0190931B01A0931C019B
:10036000B0931D01BF91AF919F918F910F900FBEE0
:100370000F901F9018956093000170930101809376
:1003800002019093030160931A0170931B01809303
:100390001C0190931D01089580E4A9DE80E0CADE6F
:1003A00084E0C8DE8AE0C6DE81E1C4DE89E1C2DE27
:1003B00085E1C0DE8EE0BEDE80E0BCDE88EB97DE4D
:1003C00085E0B8DE8AE090E07FCE089588E68FDE93
:1003D00084E0B0DE85E1AEDE8EE0ACDE8EE0AADE4B
:1003E0008EE0A8DE8EE0A6DE85E1A4DE84E0A2DE5B
:1003F00088EB7DDE85E09EDE8AE090E065CE0895A4
:100400001F93CF93DF93162F20E320932201209395
:10041000230120932001BC0180E090E01FD226E65A
:1004200036E646EE5FE3A8D220E030E040E052E45A
:1004300085D1E8D1EB01812F66DEC436D10520F0ED
:1004400081E38093220103C080E2809322018091A6
:10045000220170DE81E0810F56DECA30D10568F0DE
:10046000809123018F5F01C0892F2A9791E0980F17
:10047000CA30D105C8F780932301809123015ADE49
:10048000609120016C0F6093200182E0810F3BDEC0
:10049000809120014FDE80E036DEDF91CF911F9109
:1004A000089580911F01882319F0813029F145C0FA
:1004B0008091060190912201891316C030910501A7
:1004C0002091230132130AC09091040180912001F0
:1004D000891730F081E080931F0137C0231720F087
:1004E00081E080931F0131C0803261F5913351F575
:1004F00081E080931F0129C0809106019091220123
:10050000891314C03091050120912301321309C0D1
:100510003091200120910401321740F410921F0104
:1005200011C0231718F410921F010CC0813369F415
:10053000903259F410921F0105C0882319F08130C0
:1005400031F403C05D9828DF02C05D9A3FDF67E0A9
:1005500071E081E0F8DD80910601ECDD809105011C
:10056000E9DD80910401E6DD80911F01813009F40D
:100570002DCF089580912101882319F0813039F021
:1005800084C0029996C081E080932101089500996A
:1005900044C090910601913351F48091050182335A
:1005A00009F076C090910401953331F5089580915A
:1005B0000501893371F420910401293309F06CC0DD
:1005C00081E38093060180E3809305018093040119
:1005D00008959032E1F48A33D0F490910401993374
:1005E000B0F08F5F8093050180E38093040108954C
:1005F000913369F48A3358F490910401993338F0B7
:100600008F5F8093050180E38093040108958091BA
:1006100004018F5F809304010895019931C0809196
:100620000601803249F4809105018633C1F480913E
:1006300004018033D9F50895813389F4809105014F
:10064000803369F4809104018033B1F480E28093B7
:10065000060189E380930501809304010895809148
:100660000401803349F48091050181508093050194
:1006700089E38093040108958150809304010895D3
:10068000029917C010922101089510922101089536
:10069000893309F0AFCF04C0903209F0A9CF9DCFC4
:1006A00020910401293309F0A3CF8ACF809104015E
:1006B000E3CF089580EF81B98FE082B98FEF87B9DA
:1006C00018B88AB91BB827DD1BDD2FEF89E698E142
:1006D000215080409040E1F700C0000010922101BD
:1006E00010921F0164E670E080E090E044DEE3DDFC
:1006F00068E171E089E191E03FDD8F3F41F0809159
:1007000019016BE1082E000C990B7ADE04C062E13E
:1007100071E081E018DD2FEF8EE994E221508040F6
:100720009040E1F700C0000025DFBBDE80911E0194
:100730008823E1F310921E01DBCF5058BB27AA2774
:100740000ED0E0C0D1D030F0D6D020F031F49F3FB1
:1007500011F41EF4C6C00EF4E095E7FBBCC0E92F0F
:10076000E2D080F3BA17620773078407950718F081
:1007700071F49EF5FAC00EF4E0950B2EBA2FA02D61
:100780000B01B90190010C01CA01A0011124FF273E
:10079000591B99F0593F50F4503E68F11A16F04039
:1007A000A22F232F342F4427585FF3CF4695379538
:1007B0002795A795F0405395C9F77EF41F16BA0BFD
:1007C000620B730B840BBAF09150A1F0FF0FBB1FAB
:1007D000661F771F881FC2F70EC0BA0F621F731FF4
:1007E000841F48F4879577956795B795F7959E3F51
:1007F00008F0B3CF9395880F08F09927EE0F9795DF
:100800008795089598D088F09F5790F0B92F992731
:10081000B751A0F0D1F0660F771F881F991F1AF00B
:10082000BA95C9F712C0B13081F09FD0B1E00895F8
:100830009CC0672F782F8827B85F39F0B93FCCF379
:10084000869577956795B395D9F73EF49095809501
:10085000709561957F4F8F4F9F4F0895E89409C021
:1008600097FB3EF490958095709561957F4F8F4FE3
:100870009F4F9923A9F0F92F96E9BB279395F695F9
:10088000879577956795B795F111F8CFFAF4BB0F77
:1008900011F460FF1BC06F5F7F4F8F4F9F4F16C0DB
:1008A000882311F096E911C0772321F09EE8872F65
:1008B000762F05C0662371F096E8862F70E060E021
:1008C0002AF09A95660F771F881FDAF7880F96959A
:1008D000879597F9089597F99F6780E870E060E041
:1008E00008959FEF80EC089500240A9416161706C9
:1008F00018060906089500240A9412161306140611
:1009000005060895092E0394000C11F4882352F073
:10091000BB0F40F4BF2B11F460FF04C06F5F7F4F2B
:100920008F4F9F4F089557FD9058440F551F59F012
:100930005F3F71F04795880F97FB991F61F09F3FCC
:1009400079F087950895121613061406551FF2CFF5
:100950004695F1DF08C0161617061806991FF1CF45
:1009600086957105610508940895E894BB2766276C
:100970007727CB0197F908950BD0C4CFB5DF28F0C6
:10098000BADF18F0952309F0A6CFABCF1124EECF34
:10099000CADFA0F3959FD1F3950F50E0551F629FDA
:1009A000F001729FBB27F00DB11D639FAA27F00DC8
:1009B000B11DAA1F649F6627B00DA11D661F829FEF
:1009C0002227B00DA11D621F739FB00DA11D621FD4
:1009D000839FA00D611D221F749F3327A00D611DF1
:1009E000231F849F600D211D822F762F6A2F1124D3
:1009F0009F5750408AF0E1F088234AF0EE0FFF1F26
:100A0000BB1F661F771F881F91505040A9F79E3F5C
:100A1000510570F060CFAACF5F3FECF3983EDCF356
:100A2000869577956795B795F795E7959F5FC1F799
:100A3000FE2B880F911D9695879597F90895F89448
:020A4000FFCFE6
:100A420001000000353720557365722054656D70C2
:080A52003A006572726F720038
:00000001FF
